:0400000073EF00F0AA
:0C000800FACF2DF0FBCF2EF07AEF0DF0B8
:10001800D8CF03F0E8CF04F0E0CF05F0FACF06F030
:10002800FBCF07F0E9CF08F0EACF09F0E1CF0AF0FB
:10003800E2CF0BF0D9CF0CF0DACF0DF0F3CF0EF002
:10004800F4CF0FF0F6CF10F0F7CF11F0F8CF12F091
:10005800F5CF13F0F2A408D0F2943B2A3C2A3D2AAB
:10006800FB0ED76E1E0ED66E9EAA0AD09E9AAECFF3
:1000780014F0145040EC10F0ABA202D0AB98AB884F
:10008800A4AA0AD0A49A7ACF14F0145006EC10F05F
:10009800A6A202D0A698A68813C0F5FF12C0F8FF42
:1000A80011C0F7FF10C0F6FF0FC0F4FF0EC0F3FF3A
:1000B8000DC0DAFF0CC0D9FF0BC0E2FF0AC0E1FF98
:1000C80009C0EAFF08C0E9FF07C0FBFF06C0FAFF46
:1000D80005C0E0FF04C0E8FF03C0D8FF100012EF1E
:1000E80011F0000E000100018D6F000E00018C6FF1
:1000F800000E000100018F6F000E00018E6F0001DD
:100108008A6F000E00010001706F00018A51020E13
:100118008EEC0FF000018B6F00018B3B0F0E8B17DD
:100128000F0E00018B1700018B51000100018C6F2D
:1001380000018D6B00018A6F000E00010001706FD5
:1001480000018A51030E8EEC0FF000018B6F000145
:100158008B51000100018E6F00018F6B00018EC072
:100168008AF000018FC08BF000018A3B8B3BF00EB8
:100178008B178A510F0B8B13F00E8A1700010001A1
:100188008C5100018A1100010001906F00010001EB
:100198008D5100018B110001916F000E00010001CB
:1001A8008D6F000E00018C6F000E000100018F6F33
:1001B800000E00018E6F00018A6F000E0001000121
:1001C800706F00018A51040E8EEC0FF000018B6FE6
:1001D80000018B3B0F0E8B170F0E00018B170001D0
:1001E8008B51000100018C6F00018D6B00018A6F3B
:1001F800000E00010001706F00018A51050E8EEC9F
:100208000FF000018B6F00018B51000100018E6F10
:1002180000018F6B00018EC08AF000018FC08BF047
:1002280000018A3B8B3BF00E8B178A510F0B8B1307
:10023800F00E8A17000100018C5100018A1100019B
:100248000001926F000100018D5100018B11000126
:10025800936F000E000100018D6F000E00018C6F7E
:10026800000E000100018F6F000E00018E6F00016B
:100278008A6F000E00010001706F00018A51060E9E
:100288008EEC0FF000018B6F00018B3B0F0E8B176C
:100298000F0E00018B1700018B51000100018C6FBC
:1002A80000018D6B00018A6F000E00010001706F64
:1002B80000018A51070E8EEC0FF000018B6F0001D0
:1002C8008B51000100018E6F00018F6B00018EC001
:1002D8008AF000018FC08BF000018A3B8B3BF00E47
:1002E8008B178A510F0B8B13F00E8A170001000130
:1002F8008C5100018A1100010001946F0001000176
:100308008D5100018B110001956F000E0001000155
:100318008D6F000E00018C6F000E000100018F6FC1
:10032800000E00018E6F00018A6F010E00010001AE
:10033800706F00018A51020E8EEC0FF000018B6F76
:1003480000018B51000100018C6F00018D6B0001D1
:100358008A6F010E00010001706F00018A51030EBF
:100368008EEC0FF000018B6F00018B510001000132
:100378008E6F00018F6B000100018E5100018B6FA1
:100388008A6B000100018C5100018A1100010001F3
:10039800966F000100018D5100018B110001976FCC
:1003A800000E000100018D6F000E00018C6F000E21
:1003B800000100018F6F000E00018E6F00018A6F2F
:1003C800010E00010001706F00018A51040E8EECCD
:1003D8000FF000018B6F00018B51000100018C6F41
:1003E80000018D6B00018A6F010E00010001706F22
:1003F80000018A51050E8EEC0FF000018B6F000191
:100408008B51000100018E6F00018F6B000100010C
:100418008E5100018B6F8A6B000100018C51000125
:100428008A1100010001986F000100018D5100013F
:100438008B110001996F000E000100018D6F000EF5
:1004480000018C6F000E000100018F6F000E00018B
:100458008E6F00018A6F010E00010001706F0001AC
:100468008A51060E8EEC0FF000018B6F00018B5144
:10047800000100018C6F00018D6B00018A6F010E75
:1004880000010001706F00018A51070E8EEC0FF019
:1004980000018B6F00018B51000100018E6F00017C
:1004A8008F6B000100018E5100018B6F8A6B000178
:1004B80000018C5100018A11000100019A6F0001AE
:1004C80000018D5100018B1100019B6F000E00018E
:1004D80000018D6F000E00018C6F000E00010001FD
:1004E8008F6F000E00018E6F00018A6F020E0001EF
:1004F8000001706F00018A51420E8EEC0FF000016E
:100508008B6F0001D8908B330001D8908B3300019A
:10051800D8908B331F0E00018B1700018B510001FF
:1005280000018C6F00018D6B00018A6F020E0001C3
:100538000001706F00018A51430E8EEC0FF000012C
:100548008B6F00018B51000100018E6F00018F6BD2
:1005580000018EC08AF000018FC08BF0050ED89084
:1005680000018A378B37E82EFAD7000100018C5139
:1005780000018A11000100019C6F000100018D51EA
:1005880000018B1100019D6F000E000100018D6FAD
:10059800000E00018C6F000E000100018F6F000E2D
:1005A80000018E6F00018A6F020E00010001706F5A
:1005B80000018A51440E8EEC0FF000018B6F000190
:1005C800D8908B330001D8908B330001D8908B33AF
:1005D8001F0E00018B1700018B51000100018C6F69
:1005E80000018D6B00018A6F020E00010001706F1F
:1005F80000018A51450E8EEC0FF000018B6F00014F
:100608008B51000100018E6F00018F6B00018EC0BD
:100618008AF000018FC08BF0050ED89000018A3750
:100628008B37E82EFAD7000100018C5100018A119E
:10063800000100019E6F000100018D5100018B1126
:1006480000019F6F000E000100018D6F000E000178
:100658008C6F000E000100018F6F000E00018E6F7D
:1006680000018A6F020E00010001706F00018A51BB
:10067800460E8EEC0FF000018B6F0001D8908B3383
:100688000001D8908B330001D8908B331F0E0001E6
:100698008B1700018B51000100018C6F00018D6BDD
:1006A80000018A6F020E00010001706F00018A517B
:1006B800470E8EEC0FF000018B6F00018B5100018B
:1006C80000018E6F00018F6B00018EC08AF000015F
:1006D8008FC08BF0050ED89000018A378B37E82E33
:1006E800FAD7000100018C5100018A1100010001B4
:1006F800A06F000100018D5100018B110001A16F55
:10070800000E000100018D6F000E00018C6F000EBD
:10071800000100018F6F000E00018E6F00018A6FCB
:10072800020E00010001706F00018A51480E8EEC24
:100738000FF000018B6F0001D8908B330001D89027
:100748008B333F0E00018B1700018B510001000114
:100758008C6F00018D6B00018A6F020E0001000191
:10076800706F00018A51490E8EEC0FF000018B6FFB
:1007780000018B51000100018E6F00018F6B000199
:100788008EC08AF000018FC08BF0060ED890000151
:100798008A378B37E82EFAD7000100018C51000107
:1007A8008A1100010001A26F000100018D510001B2
:1007B8008B110001A36F00018A6F000E0001000178
:1007C800706F00018A51080E8EEC0FF000010001D5
:1007D800A46F20EEA4F000EE89F0150EDDCFEDFF3A
:1007E800E82EFCD7E92AEA221200A0EC11F0D00E7C
:1007F8000001A56FCA0EE82EFED7A52FFCD77AEC0C
:1008080010F04FEC11F03DEC11F08FEC11F017ECFB
:100818000DF0CFEC0AF082EC11F00001A56F000E8C
:100828003B6E0001A5510001A56F010E3C6E000151
:10083800A5510001A56F020E3D6E0001A551D0EC37
:1008480010F0F1EC10F00EEC0FF0D00E0001A56FD7
:10085800CA0EE82EFED7A52FFCD78C9434EC09F0ED
:10086800DDEC0DF001010101906F89860001A56F93
:10087800000E01010101926F0001A5510BD0D00EAD
:100888000001A56FCA0EE82EFED7A52FFCD70101DF
:100898000101922BC70E010101019265F0D78996DB
:1008A800D00E0001A56FCA0EE82EFED7A52FFCD7E3
:1008B800D00E0001A56FCA0EE82EFED7A52FFCD7D3
:1008C800A8EC10F08C80410E99EC11F0540E99ECC4
:1008D80011F00D0E99EC11F00001A56F000E010149
:1008E8000101936F0001A5510BD0D00E0001A56F37
:1008F800CA0EE82EFED7A52FFCD701010101932BC4
:10090800090E010101019365F0D73B50D8B477D0A7
:100918008C820001A56F000E3B6E0001A55175EC9D
:1009280000F021EEA2F0150EEECFDEFFE82EFCD788
:100938000101A3C1A5F0A5C0A6F00001A76B0001A5
:10094800A65101010101BB6FA2C1BCF10101A5C102
:10095800A5F0A5C0A6F00001A76B0001A6510101F2
:100968000101BD6FA4C1BEF10101A7C1A5F0A5C0D9
:10097800A6F00001A76B0001A65101010101BF6F9C
:10098800A6C1C0F10001A56F000E01010101C16FF0
:100998000001A5510001A56F000E01010101C26F00
:1009A8000001A5510001A56F060E01010101C36FE9
:1009B8000001A551800E01010101B76F010E01016F
:1009C800B86F000E0101B96F000E0101BA6F000186
:1009D800A56F000E01010101C46F0001A5510101BD
:1009E80001018E670BD021EEB7F010EE6EF00E0EFF
:1009F800DECFE6FFE82EFCD73AEC0EF08C923C50A6
:100A0800D8B45CD00001A56F000E3C6E0001A55162
:100A18000101A9C1A5F0A5C0A6F00001A76B0001BE
:100A2800A65101010101BB6FA8C1BCF10101ABC115
:100A3800A5F0A5C0A6F00001A76B0001A651010111
:100A48000101BD6FAAC1BEF10101ADC1A5F0A5C0EC
:100A5800A6F00001A76B0001A65101010101BF6FBB
:100A6800ACC1C0F10001A56F060E01010101C36F01
:100A78000001A551810E01010101B76F010E0101AD
:100A8800B86F000E0101B96F000E0101BA6F0001C5
:100A9800A56F000E01010101C46F0001A5510101FC
:100AA80001018E670BD021EEB7F010EE6EF00E0E3E
:100AB800DECFE6FFE82EFCD73AEC0EF03D50D8B476
:100AC8006AD00001A56F000E3D6E0001A55101011D
:100AD800AFC1A5F0A5C0A6F00001A76B0001A65103
:100AE80001010101BB6FAEC1BCF10101B1C1A5F0AB
:100AF800A5C0A6F00001A76B0001A65101010101E4
:100B0800BD6FB0C1BEF10101B3C1A5F0A5C0A6F08B
:100B18000001A76B0001A65101010101BF6FB2C11D
:100B2800C0F10101B5C1A5F0A5C0A6F00001A76BF1
:100B38000001A65101010101C16FB4C1C2F1000158
:100B4800A56F080E01010101C36F0001A551820EB6
:100B580001010101B76F010E0101B86F000E01011B
:100B6800B96F000E0101BA6F0001A56F000E0101F7
:100B78000101C46F0001A551010101018E670BD06D
:100B880021EEB7F010EE6EF00E0EDECFE6FFE82E87
:100B9800FCD73AEC0EF0020102018F67ECD001019C
:100BA80001018E67E8D0A9EC0CF021EE94F00E0E4E
:100BB800EECFDEFFE82EFCD7010101019505840E7A
:100BC800D8B4941996119711D8A43ED00101010107
:100BD800A151400AD8A438D00001A56F010E010127
:100BE8000101BB6F0001A5510001A56F010E0101B4
:100BF8000101BC6F0001A5510001A56F020E0101A2
:100C08000101C36F0001A551840E01010101B76FF5
:100C1800010E0101B86F000E0101B96F000E01014C
:100C2800BA6F0001A56F000E01010101C46F000138
:100C3800A55121EEB7F010EE6EF00E0EDECFE6FFF6
:100C4800E82EFCD73AEC0EF00101010195058F0E54
:100C5800D8B4941996119711D8A43ED00101010176
:100C6800A151400AD8A438D00001A56F010E010196
:100C78000101BB6F0001A5510001A56F010E010123
:100C88000101BC6F0001A5510001A56F020E010111
:100C98000101C36F0001A5518F0E01010101B76F5A
:100CA800010E0101B86F000E0101B96F000E0101BC
:100CB800BA6F0001A56F000E01010101C46F0001A8
:100CC800A55121EEB7F010EE6EF00E0EDECFE6FF66
:100CD800E82EFCD73AEC0EF0010101019505830ED0
:100CE800D8B4941996119711D8A430D001010101F4
:100CF800A151400AD8A42AD0B6C1BBF10001A56F02
:100D0800010E01010101C36F0001A551830E01010C
:100D18000101B76F010E0101B86F000E0101B96F33
:100D2800000E0101BA6F0001A56F000E010101015B
:100D3800C46F0001A55121EEB7F010EE6EF00E0E53
:100D4800DECFE6FFE82EFCD73AEC0EF001010101F8
:100D58009551020A810ED8B4941996119711D8A406
:100D68000AD001010101A005D8A405D001010101A3
:100D7800985199EC11F000010001C36733D00101CB
:100D880001018E672FD084EC0EF001010101916FF3
:100D980091C1BBF10001A56F010E01010101C36FF3
:100DA8000001A551000E01010101B76F020E0101FA
:100DB800B86F000E0101B96F000E0101BA6F000192
:100DC800A56F000E01010101C46F0001A55121EEBC
:100DD800B7F010EE6EF00E0EDECFE6FFE82EFCD771
:100DE8003AEC0EF000010001B56733D001010101B2
:100DF8008E672FD0C9EC0EF001010101916F91C1EE
:100E0800BBF10001A56F010E01010101C36F0001D3
:100E1800A551800E01010101B76F020E0101B86FE3
:100E2800000E0101B96F000E0101BA6F0001A56F34
:100E3800000E01010101C46F0001A55121EEB7F0B8
:100E480010EE6EF00E0EDECFE6FFE82EFCD73AEC81
:100E58000EF0010101018F6758D50F0120B755D554
:100E68008C823BEC0CF021EEB7F00E0EEECFDEFFDD
:100E7800E82EFCD7B7C179F0B8C17AF0B9C17BF0D8
:100E8800BAC17CF00101010E000100017E6F010171
:100E9800BB0E000100017D6FC3C17FF0C4C180F0AB
:100EA80048EC08F08C9231D50001000E00010001D9
:100EB800786F0001700E00010001776F00010001DA
:100EC80074674DD077C0D9FF78C0DAFFDF500001D2
:100ED800756F0001D89075330001D8907533000103
:100EE800D89075316EC0D9FF6FC0DAFFDF6E000190
:100EF80020EE01F000017751D92600017851DA225D
:100F0800DF500001756F050E0001766F0001D89063
:100F180075370001762FFAD76EC0D9FF6FC0DAFF98
:100F280000017551DF12000100016E4B6F2B77C075
:100F3800D9FF78C0DAFFDF500001756F050E000198
:100F4800766F0001D89075370001762FFAD7000127
:100F580075516EC0D9FF6FC0DAFFDF6E1200000155
:100F680020EE02F000017751D92600017851DA22EB
:100F7800DF500001756F050E0001766F0001D890F3
:100F880075330001762FFAD7000175516EC0D9FF6D
:100F98006FC0DAFFDF6E000120EE03F00001775129
:100FA800D92600017851DA22DF500001756F00015F
:100FB800D89075370001D89075370001D8907537EB
:100FC8006EC0D9FF6FC0DAFF00017551DF12000152
:100FD80000016E4B6F2B000120EE02F000017751EB
:100FE800D92600017851DA22DF500001756F00011F
:100FF800D89075370001D89075370001D8907535AD
:10100800E00B6EC0D9FF6FC0DAFFDF6E6EC0D9FF8C
:101018006FC0DAFF000EDB86000120EE02F000014F
:101028007751D92600017851DA22DF500001756F17
:10103800030E000175176EC0D9FF6FC0DAFF0001FB
:101048007551DF12000100016E4B6F2B000120EE7D
:1010580001F000017751D92600017851DA226EC0DB
:10106800E1FF6FC0E2FFDFCFE7FF000100016E4B39
:101078006F2B77C0D9FF78C0DAFF6EC0E1FF6FC071
:10108800E2FFDFCFE7FF12000F010F0E00010001A2
:10109800836F0F01200E00010001826F0F010F0EF8
:1010A80000010001856F0F01100E00010001846F1F
:1010B8000F010F0E00010001876F0F01000E0001E4
:1010C8000001866F0001816F000E00010001986F1A
:1010D80000018151010E00010001986501D0120044
:1010E800000100019851020D0001820EF324D96E0F
:1010F8000001000EF420DA6E0001DECF99F0000145
:10110800DDCF9AF0000100019AC096F000010001BD
:1011180099C095F099C0D9FF9AC0DAFFDF50000155
:10112800816F000181B793D099C0D9FF9AC0DAFFC7
:10113800FC0EDF1680C081F0030E0001811799C0F4
:10114800D9FF9AC0DAFF00018151DF1200010001C6
:1011580080AD08D0000100017F5140090001000165
:10116800976F02D07FC097F0000120EE05F00001D4
:101178009951D92600019A51DA22000197C0DFFF60
:101188000001000180AB04D00001816F010E03D083
:101198000001816F000E00010001976F000181516D
:1011A800010E000100019925000100016E6F000E7B
:1011B800000100019A2100016F6F79C070F07AC0B8
:1011C80071F07BC072F07CC073F097C074F058EC7B
:1011D80007F0060E000100019927000E00019A236E
:1011E8000001816F000E00010001946F0001815120
:1011F80015D07DC0D9FF7EC0DAFF99C0E1FF9AC043
:10120800E2FFDFCFE7FF000100017D4B7E2B0001ED
:101218000001994B9A2B00010001942B0001000159
:101228007F5100010001945DD8A0E3D795C0D9FF94
:1012380096C0DAFFDF500001816F000181B512000E
:1012480095C0D9FF96C0DAFF000EDB8612000001B8
:101258000001982B010E00010001986541D712008A
:101268000001766F000E00010001706F00017651D9
:101278000001776F020E00010001716F00017751C4
:10128800100ECCEC0FF0150E0001766FC60EE82E8E
:10129800FED7762FFCD700D00001766F010E000133
:1012A8000001706F000176510001776F010E000197
:1012B8000001716F000177510F0ECCEC0FF0150E85
:1012C8000001766FC60EE82EFED7762FFCD700D029
:1012D8000001766F070E00010001706F0001765162
:1012E8000001776F010E00010001716F0001775155
:1012F800100ECCEC0FF0150E0001766FC60EE82E1E
:10130800FED7762FFCD700D00001766F010E0001C2
:101318000001706F000176510001776F020E000125
:101328000001716F000177514B0ECCEC0FF0150ED8
:101338000001766FC60EE82EFED7762FFCD700D0B8
:101348000001766F050E00010001706F00017651F3
:101358000001776F020E00010001716F00017751E3
:101368004E0ECCEC0FF0150E0001766FC60EE82E6F
:10137800FED7762FFCD700D00001766F170E00013C
:101388000001706F000176510001776F020E0001B5
:101398000001716F00017751510ECCEC0FF0150E62
:1013A8000001766FC60EE82EFED7762FFCD700D048
:1013B8000001766F520E00010001706F0001765136
:1013C8000001776F020E00010001716F0001775173
:1013D800510ECCEC0FF0150E0001766FC60EE82EFC
:1013E800FED7762FFCD700D00001766F280E0001BB
:1013F8000001706F000176510001776F020E000145
:101408000001716F000177514C0ECCEC0FF0150EF6
:101418000001766FC60EE82EFED7762FFCD700D0D7
:10142800120018C01DF017C01CF019664AD015C06C
:10143800D9FF16C0DAFFDF501A6ED8901A36D89046
:101448001A36D8901A341CC0D9FF1DC0DAFFDF6ED7
:1014580020EE01F01C50D9261D50DA2215C0E1FFFC
:1014680016C0E2FFE7501A6E050E1B6ED8901A32AE
:101478001B2EFCD71A50DF6E154A162A15C0D9FF45
:1014880016C0DAFFDF501A6E050E1B6ED8901A329E
:101498001B2EFCD71CC0D9FF1DC0DAFF1A50DF1263
:1014A80020EE02F01C50D9261D50DA22000EDF6E05
:1014B80020EE03F01C50D9261D50DA22000EDF6EF4
:1014C800120020EE02F01C50D9261D50DA2215C059
:1014D800E1FF16C0E2FFE7501A6E050E1B6ED890AA
:1014E8001A361B2EFCD71A50DF6E20EE03F01C5064
:1014F800D9261D50DA2215C0E1FF16C0E2FFE750D9
:101508001A6ED8901A32D8901A32D8901A30DF6EE4
:10151800154A162A15C0D9FF16C0DAFFDF501A6E11
:10152800030E1A1620EE02F01C50D9261D50DA229E
:101538001A50DF1215C0D9FF16C0DAFFDF501A6E35
:10154800D8901A32D8901A32D8901A321C0E1A161D
:1015580020EE02F01C50D9261D50DA221A50DF1254
:10156800154A162A15C0D9FF16C0DAFF10EE01F089
:101578001C50E1261D50E222DFCFE7FF154A162A4C
:1015880015C0D9FF16C0DAFF1CC0E1FF1DC0E2FF7D
:10159800DFCFE7FF1200FE0E0E010E01F86F000EFE
:1015A8000E010E01F96FFE0E0E010E01FC6F000E0A
:1015B8000E010E01FD6F010E00010001716F800E1A
:1015C8000001706F000170C06EF0000171C06FF013
:1015D8000001D8906F336E330001D8906F336E33AB
:1015E8000001D8906F336E3300016E510E010E0169
:1015F800E06F000100017039E846E00B0E010E01B2
:10160800E16F020E00010001716F000E0001706FA2
:10161800000170C06EF0000171C06FF00001D89039
:101628006F336E330001D8906F336E330001D8905A
:101638006F336E3300016E510E010E01E46F00012D
:1016480000017039E846E00B0E010E01E56F020E4D
:1016580000010001716F800E0001706F000170C001
:101668006EF0000171C06FF00001D8906F336E33D7
:101678000001D8906F336E330001D8906F336E330A
:1016880000016E510E010E01E86F00010001703972
:10169800E846E00B0E010E01E96F030E00010001A0
:1016A800716F000E0001706F000170C06EF00001D4
:1016B80071C06FF00001D8906F336E330001D8907D
:1016C8006F336E330001D8906F336E3300016E5163
:1016D8000E010E01EC6F000100017039E846E00BC5
:1016E8000E010E01ED6F000E0E010E01F06F000EDF
:1016F8000E010E01F16F000E0E010E01F46F000EC7
:101708000E010E01F56F1200266E000E3E6E265079
:1017180060AE13D0779071AE07D024C0D9FF25C032
:10172800DAFF000EDB86719E60A002D03E8001D0F9
:101738003E900F0E2B6E600E21D00F0130AF1200BD
:10174800779271AC07D024C0D9FF25C0DAFF000E0C
:10175800DB86719C0F010F013051070B3E6E020EA4
:101768003E5CD8B006D024C0D9FF25C0DAFF000EF1
:10177800DB8E0F010F0E2B6E0F01300E2A6E2BC061
:1017880028F02AC027F024C0D9FF25C0DAFF000EB0
:10179800DF6E20EE05F02A50D9262B50DA22DF50D2
:1017A8002C6E2C500F0B22C0D9FF23C0DAFFDF6E3E
:1017B8002CAC06D024C0D9FF25C0DAFF000EDB8C84
:1017C80020EE02F02A50D9262B50DA22DF502C6E58
:1017D8002CA609D024C0D9FF25C0DAFF000EDB8A69
:1017E800266E010E02D0266E000E2C6E2650010EBB
:1017F8002A24156E000E2B20166E1FC018F01EC06E
:1018080017F02CC019F015EC0AF0060E2A26000E67
:101818002B2222C0D9FF23C0DAFFDF502C6E266EA0
:10182800000E296E26500FD02AC0D9FF2BC0DAFF30
:1018380020C0E1FF21C0E2FFDFCFE7FF2A4A2B2AC1
:10184800204A212A292A2C50295CD8A0EDD777AE26
:1018580007D024C0D9FF25C0DAFF000EDB88779EA9
:1018680027C0D9FF28C0DAFF7F0EDF16120001015A
:1018780001018F6751D0F29E010101018C510E0DBB
:10188800000E00017C6F010E7D6FF35000017C2774
:10189800F45000017D237CC0D9FF7DC0DAFF10EE33
:1018A8007EF00E0EDECFE6FFE82EFCD700017C6F3F
:1018B800000E010101018E6F00017C51010101013F
:1018C8008C2B010101018C510A0AD8A408D000010F
:1018D8007C6F000E010101018C6F00017C51010138
:1018E80001018C51010121EE8DF0DF6208D0000169
:1018F8007C6F010E010101018F6F00017C51F28E96
:1019080020EE8BF000EE7BF00E0EDDCFEDFFE82E23
:10191800FCD7E92AEA221200000E000100017E6FBE
:10192800000E00017F6F000E0001806F000E0001A5
:10193800816F20EE8BF000EE7BF00E0EDDCFEDFF19
:10194800E82EFCD7E92AEA221200020102018F6779
:1019580051D0F29E020102018C510E0D000E0001C1
:101968007C6F020E7D6FF35000017C27F45000015C
:101978007D237CC0D9FF7DC0DAFF10EE7EF00E0E0D
:10198800DECFE6FFE82EFCD700017C6F000E0201D7
:1019980002018E6F00017C51020102018C2B0201B1
:1019A80002018C510A0AD8A408D000017C6F000EED
:1019B800020102018C6F00017C51020102018C516D
:1019C800020122EE8DF0DF6208D000017C6F010E6B
:1019D800020102018F6F00017C51F28E20EE8BF024
:1019E80000EE7BF00E0EDDCFEDFFE82EFCD7E92AE6
:1019F800EA221200000E000100017E6F000E0001B5
:101A08007F6F000E0001806F000E0001816F20EED5
:101A18008BF000EE7BF00E0EDDCFEDFFE82EFCD74D
:101A2800E92AEA221200800E72EC11F0010E0E0172
:101A38000E01436F700E0E010E01446F000E0E0171
:101A48000E01456F300E706E729E729C000E606EB5
:101A5800000E0F010F01306F000E0E010E01E06F36
:101A6800000E0E010E01E16F000E0E010E01E46F73
:101A7800000E0E010E01E56F000E0E010E01E86F5B
:101A8800000E0E010E01E96F000E0E010E01EC6F43
:101A9800000E0E010E01ED6F000E0E010E01F06F2B
:101AA800000E0E010E01F16F000E0E010E01F46F13
:101AB800000E0E010E01F56F000E0E010E01F86FFB
:101AC800000E0E010E01F96F0E010E01F997000EBE
:101AD8000E010E01FC6F000E0E010E01FD6F0E01CE
:101AE8000E01FD97000E72EC11F01200E9CF2FF0F5
:101AF800EACF30F0E1CF31F0E2CF32F0D9CF33F096
:101B0800DACF34F0F3CF35F0F4CF36F0F6CF37F044
:101B1800F7CF38F0F8CF39F0F5CF3AF0000E77B0BC
:101B2800010E77B2010EE8A027D00001000E1F6E4B
:101B38000001600E1E6E0001000E216E0001640E91
:101B4800206E0001000E236E00016C0E226E000153
:101B5800000E256E00016D0E246E88EC0BF020EE51
:101B680060F010EE15F00E0EDECFE6FFE82EFCD783
:101B78004FEC0FF0779077923AC0F5FF39C0F8FF35
:101B880038C0F7FF37C0F6FF36C0F4FF35C0F3FFA3
:101B980034C0DAFF33C0D9FF32C0E2FF31C0E1FF01
:101BA80030C0EAFF2FC0E9FF2EC0FBFF2DC0FAFFAF
:101BB80011000001756F000E00010001776F000130
:101BC80075510001756F000E00010001706F000172
:101BD8007551000E8EEC0FF000010001766F0001C8
:101BE80000017651FA0AD8A407D000010001775104
:101BF800010900010001776F0001756F010E0001F6
:101C08000001706F00017551000E8EEC0FF000019D
:101C18000001766F0001000176510F0AD8A407D0A1
:101C2800000100017751020900010001776F0001EE
:101C3800756F020E00010001706F00017551400EB2
:101C48008EEC0FF000010001766F00010001765163
:101C5800320AD8A407D00001000177510409000115
:101C68000001776F000100017751120001010101A5
:101C78008E671200F29E20EE6EF0010101018D5177
:101C88000E0D000E00017C6F010E7D6FF3500001F8
:101C98007C27F45000017D237CC0E1FF7DC0E2FF7A
:101CA8000E0EDECFE6FFE82EFCD700017C6F000E9B
:101CB800010101018F6F00017C51010101018D2B90
:101CC800010101018D510A0AD8A408D000017C6FD6
:101CD800000E010101018D6F00017C51010101011C
:101CE8008C51010121EE8DF0DF6208D000017C6F7C
:101CF800010E010101018E6F00017C51F28E12006C
:101D080000010001C3673FD0F29E00010001C051ED
:101D1800010D0001B60EF324D96E0001000EF42067
:101D2800DA6EDF50000100016F6F00016E6F000E68
:101D380000010001C26F00016E5100010001C02BBB
:101D480000010001C0510A0AD8A408D000016E6F32
:101D5800000E00010001C06F00016E51000100017A
:101D6800C051000120EEC1F0DF6208D000016E6FA3
:101D7800010E00010001C36F00016E51F28E0001D7
:101D880000016F511200000E120000010001B5673A
:101D98003FD0F29E00010001B251010D0001A80ED2
:101DA800F324D96E0001000EF420DA6EDF50000132
:101DB80000016F6F00016E6F000E00010001B46F2B
:101DC80000016E5100010001B22B00010001B25167
:101DD8000A0AD8A408D000016E6F000E00010001A5
:101DE800B26F00016E5100010001B251000120EEF6
:101DF800B3F0DF6208D000016E6F010E0001000130
:101E0800B56F00016E51F28E000100016F51120092
:101E1800000E120000016E6F010E00010001B56F87
:101E280000016E5100016E6F000E00010001B46FD9
:101E380000016E5100016E6F000E00010001B36FCA
:101E480000016E5100016E6F000E00010001B26FBB
:101E580000016E5100016E6F010E00010001C36F99
:101E680000016E5100016E6F000E00010001C26F8B
:101E780000016E5100016E6F000E00010001C16F7C
:101E880000016E5100016E6F000E00010001C06F6D
:101E980000016E511200020102018E67120020EE4D
:101EA80015F0020102018D510E0D000E236E020E77
:101EB800246EF3502326F450242223C0E1FF24C0CB
:101EC800E2FF0E0EDECFE6FFE82EFCD7236E000EF3
:101ED800020102018F6F2350020102018D2B0201C2
:101EE80002018D510A0AD8A406D0236E000E020101
:101EF80002018D6F2350020102018C51020122EE72
:101F08008DF0DF621200236E010E020102018E6F56
:101F180023501200E8CF72F00001716F000E00012B
:101F28000001736F000171510001716F000E000113
:101F38000001746F000171510001000172518009A4
:101F480000010001736F00010001706702D08B94DB
:101F58000DD0000100017005D8A402D08B9206D0E4
:101F6800000100017051020AD8B48B9000010001F1
:101F7800735161EC11F0000E2BEC11F0000100011F
:101F8800746F8B848B828B80000100017451120066
:101F9800E8CF74F00001726F000E00010001756F48
:101FA800000172510001726F000E00010001736F91
:101FB800000172510001000174517F0B0001000102
:101FC800756F00010001716702D08B940DD000017C
:101FD80000017105D8A402D08B9206D0000100013F
:101FE8007151020AD8B48B9000010001755161EC5F
:101FF80011F000010001705161EC11F08B848B82AB
:102008008B801200E8CF02F0F29E00010001C26747
:1020180031D000010001C151010D0001B60EF324B9
:10202800D96E0001000EF420DA6E02C0DFFF016EE7
:10203800000E00010001C36F015000010001C12B17
:1020480000010001C1510A0AD8A406D0016E000E91
:1020580000010001C16F015000010001C0510001E1
:1020680020EEC1F0DF6206D0016E010E0001000112
:10207800C26F0150F28E1200E8CF02F0F29E00010A
:102088000001B46731D000010001B351010D000116
:10209800A80EF324D96E0001000EF420DA6E02C0F7
:1020A800DFFF016E000E00010001B56F0150000155
:1020B8000001B32B00010001B3510A0AD8A406D0CD
:1020C800016E000E00010001B36F01500001000114
:1020D800B251000120EEB3F0DF6206D0016E010EAE
:1020E80000010001B46F0150F28E1200C294C29632
:1020F800C298C29AC29CC280000EC16EC08EC086B1
:10210800C088C08AC050F80B0609C06E010E0F01C6
:102118000F015D6F000E0F010F015C6F050E926ECF
:10212800080E896EFB0E936E8A84900E946E8B84D3
:102138008B828B80B80E956E8C908C928C84000E5E
:10214800966E8D808D821200D08E200EF26EF80E63
:10215800F16E000EF06E000E9E6E000EA16E000E67
:10216800A46E000EB76E000E776E200E9D6E000EE8
:10217800A06E200EA36E000EB66E030E766E000ED5
:102188009F6E000EA26E000EA56E000EB86E030EB6
:10219800786EF28EF28C120000016E6F010E010152
:1021A80001018F6F00016E5100016E6F000E010179
:1021B80001018E6F00016E5100016E6F000E01016A
:1021C80001018C6F00016E5100016E6F000E01015C
:1021D80001018D6F00016E51120000016E6F010E3A
:1021E800020102018F6F00016E5100016E6F000E37
:1021F800020102018E6F00016E5100016E6F000E28
:10220800020102018C6F00016E5100016E6F000E19
:10221800020102018D6F00016E51120002EE00F002
:10222800900EEE6AE806FDE101EE00F0900EEE6A0F
:10223800E806FDE100EEA8F01C0EEE6AE806FDE1F6
:102248003E6A3D6A3C6A3B6A0001F9EF03F0E8CF59
:102258006EF0F29EC9CF6FF09E96C69E6EC0C9FF03
:10226800C7A0FED7C9CF6FF0F28E000100016F51F1
:102278001200000EBA6E000EA66EBA98BA9CA69C02
:10228800BA9EA688BA94B9969D8A9D98670E7B6E69
:10229800BA8AA68E1200000EAC6E000EAB6EAC9819
:1022A800AC9CAB9CAC9EAB88AC94A7969D8A9D9841
:1022B800670EAF6EAC8AAB8E1200E8CF6FF0F29E5D
:1022C800C9CF6EF09E96C69E6FC0C9FFC6AE02D03B
:1022D800F28E1200C7A0FED7F28E1200E8CF6EF081
:1022E8001F0E6F16000100016E516F126E50E00B49
:1022F800000100016E19D8B41200F8D7D59CD59A00
:10230800D596D550F80B0609D56EFB0ED76E1E0E66
:10231800D66ED58E12003F0EC716C650F00B0209B6
:10232800C66EC698C78CC68A1200E8CF6EF0ACA2FB
:10233800FED76EC0ADFF1200D38ED398D39AD39C2C
:06234800FC0ED31612008A
:020000040020DA
:08000000FFFFFFFFFFFFFFFF00
:020000040030CA
:0E00000014137E7CFF8991FF0FC00FE00F40AC
:00000001FF
