:040000006DEF00F0B0
:0C000800FACF60F0FBCF61F0DBEF0CF0F2
:10001800D8CF03F0E8CF04F0E0CF05F0FACF06F030
:10002800FBCF07F0E9CF08F0EACF09F0E1CF0AF0FB
:10003800E2CF0BF0D9CF0CF0DACF0DF0F3CF0EF002
:10004800F4CF0FF0F6CF10F0F7CF11F0F8CF12F091
:10005800F5CF13F0F2A409D0F2942D2A2E2A2F2AD4
:10006800FB0ED76E1E0ED66E11D09EAA07D09E9A92
:10007800AECF14F014507CEC0FF008D0A4AA06D030
:10008800A49A7ACF14F01450E1EC0EF013C0F5FFE7
:1000980012C0F8FF11C0F7FF10C0F6FF0FC0F4FF41
:1000A8000EC0F3FF0DC0DAFF0CC0D9FF0BC0E2FF92
:1000B8000AC0E1FF09C0EAFF08C0E9FF07C0FBFF6B
:1000C80006C0FAFF05C0E0FF04C0E8FF03C0D8FF80
:1000D8001000E5EF0FF0000E000100019B6F000E0D
:1000E80000019A6F000E000100019D6F000E0001D3
:1000F8009C6F0001986F000E000100017E6F0001E7
:100108009851020E69EC0EF00001996F0001993BBD
:100118000F0E99170F0E0001991700019951000150
:1001280000019A6F00019B6B0001986F000E00019F
:1001380000017E6F00019851030E69EC0EF000017A
:10014800996F00019951000100019C6F00019D6B9E
:1001580000019CC098F000019DC099F00001983BF7
:10016800993BF00E991798510F0B9913F00E9817A9
:10017800000100019A5100019811000100019E6FD1
:10018800000100019B510001991100019F6F000EB1
:10019800000100019B6F000E00019A6F000E000124
:1001A80000019D6F000E00019C6F0001986F000E0A
:1001B800000100017E6F00019851040E69EC0EF0F9
:1001C8000001996F0001993B0F0E99170F0E00015E
:1001D800991700019951000100019A6F00019B6B6A
:1001E8000001986F000E000100017E6F0001985118
:1001F800050E69EC0EF00001996F0001995100019C
:1002080000019C6F00019D6B00019CC098F00001EB
:100218009DC099F00001983B993BF00E99179851B1
:100228000F0B9913F00E9817000100019A51000165
:10023800981100010001A06F000100019B5100010D
:1002480099110001A16F000E000100019B6F000EC3
:1002580000019A6F000E000100019D6F000E000161
:100268009C6F0001986F000E000100017E6F000175
:100278009851060E69EC0EF00001996F0001993B48
:100288000F0E99170F0E00019917000199510001DF
:1002980000019A6F00019B6B0001986F000E00012E
:1002A80000017E6F00019851070E69EC0EF0000105
:1002B800996F00019951000100019C6F00019D6B2D
:1002C80000019CC098F000019DC099F00001983B86
:1002D800993BF00E991798510F0B9913F00E981738
:1002E800000100019A510001981100010001A26F5C
:1002F800000100019B51000199110001A36F000E3C
:10030800000100019B6F000E00019A6F000E0001B2
:1003180000019D6F000E00019C6F0001986F010E97
:10032800000100017E6F00019851020E69EC0EF089
:100338000001996F00019951000100019A6F0001B5
:100348009B6B0001986F010E000100017E6F000198
:100358009851030E69EC0EF00001996F0001995154
:10036800000100019C6F00019D6B000100019C5180
:100378000001996F986B000100019A5100019811D2
:1003880000010001A46F000100019B5100019911B7
:100398000001A56F000E000100019B6F000E000117
:1003A8009A6F000E000100019D6F000E00019C6F06
:1003B8000001986F010E000100017E6F0001985145
:1003C800040E69EC0EF00001996F000199510001CB
:1003D80000019A6F00019B6B0001986F010E0001EC
:1003E80000017E6F00019851050E69EC0EF00001C6
:1003F800996F00019951000100019C6F00019D6BEC
:10040800000100019C510001996F986B00010001E7
:100418009A510001981100010001A66F0001000126
:100428009B51000199110001A76F000E0001000106
:100438009B6F000E00019A6F000E000100019D6F76
:10044800000E00019C6F0001986F010E0001000171
:100458007E6F00019851060E69EC0EF00001996F4D
:1004680000019951000100019A6F00019B6B000186
:10047800986F010E000100017E6F00019851070E70
:1004880069EC0EF00001996F00019951000100011B
:100498009C6F00019D6B000100019C510001996F48
:1004A800986B000100019A510001981100010001A8
:1004B800A86F000100019B51000199110001A96F6B
:1004C800000E000100019B6F000E00019A6F000EE4
:1004D800000100019D6F000E00019C6F0001986FE4
:1004E800020E000100017E6F00019851420E69EC76
:1004F8000EF00001996F0001D89099330001D8904F
:1005080099330001D89099331F0E00019917000103
:100518009951000100019A6F00019B6B0001986FCF
:10052800020E000100017E6F00019851430E69EC34
:100538000EF00001996F00019951000100019C6FB4
:1005480000019D6B00019CC098F000019DC099F0CE
:10055800050ED890000198379937E82EFAD7000190
:1005680000019A510001981100010001AA6F0001D1
:1005780000019B51000199110001AB6F000E0001B1
:1005880000019B6F000E00019A6F000E0001000130
:100598009D6F000E00019C6F0001986F020E000114
:1005A80000017E6F00019851440E69EC0EF00001C5
:1005B800996F0001D89099330001D89099330001C0
:1005C800D89099331F0E0001991700019951000125
:1005D80000019A6F00019B6B0001986F020E0001E9
:1005E80000017E6F00019851450E69EC0EF0000184
:1005F800996F00019951000100019C6F00019D6BEA
:1006080000019CC098F000019DC099F0050ED8909B
:10061800000198379937E82EFAD7000100019A515E
:100628000001981100010001AC6F000100019B510D
:10063800000199110001AD6F000E000100019B6FD0
:10064800000E00019A6F000E000100019D6F000E60
:1006580000019C6F0001986F020E000100017E6F7F
:1006680000019851460E69EC0EF00001996F0001E7
:10067800D89099330001D89099330001D8909933D4
:100688001F0E0001991700019951000100019A6F8E
:1006980000019B6B0001986F020E000100017E6F44
:1006A80000019851470E69EC0EF00001996F0001A6
:1006B8009951000100019C6F00019D6B00019CC0D5
:1006C80098F000019DC099F0050ED8900001983768
:1006D8009937E82EFAD7000100019A5100019811C4
:1006E80000010001AE6F000100019B51000199114A
:1006F8000001AF6F000E000100019B6F000E0001AA
:100708009A6F000E000100019D6F000E00019C6FA2
:100718000001986F020E000100017E6F00019851E0
:10072800480E69EC0EF00001996F0001D8909933DA
:100738000001D89099333F0E000199170001995193
:10074800000100019A6F00019B6B0001986F020E77
:10075800000100017E6F00019851490E69EC0EF00E
:100768000001996F00019951000100019C6F00017F
:100778009D6B00019CC098F000019DC099F0060E89
:10078800D890000198379937E82EFAD70001000170
:100798009A510001981100010001B06F0001000199
:1007A8009B51000199110001B16F0001986F000E73
:1007B800000100017E6F00019851080E69EC0EF0EF
:1007C80000010001B26F20EEB2F000EE97F0150EB6
:1007D800DDCFEDFFE82EFCD7E92AEA22120082ECF1
:1007E80010F0D00E0001B36FCA0EE82EFED7B32F5B
:1007F800FCD738EC10F000EC10F026EC10F078EC98
:1008080010F078EC0CF030EC0AF06BEC10F0000112
:10081800B36F000E2D6E0001B3510001B36F010ECE
:100828002E6E0001B3510001B36F020E2F6E00014E
:10083800B351A3EC0FF0C4EC0FF01BEC0FF0D00E8B
:100848000001B36FCA0EE82EFED7B32FFCD78C94E5
:1008580095EC08F03EEC0DF001010101906F8C80E1
:1008680054EC0FF02D50D8B477D08C820001B36FC0
:10087800000E2D6E0001B3516FEC00F021EEA0F0D8
:10088800150EEECFDEFFE82EFCD70101A1C1B3F0B3
:10089800B3C0B4F00001B56B0001B451010101010E
:1008A800B96FA0C1BAF10101A3C1B3F0B3C0B4F0EC
:1008B8000001B56B0001B45101010101BB6FA2C178
:1008C800BCF10101A5C1B3F0B3C0B4F00001B56B30
:1008D8000001B45101010101BD6FA4C1BEF10001C5
:1008E800B36F000E01010101BF6F0001B351000198
:1008F800B36F000E01010101C06F0001B351000187
:10090800B36F060E01010101C16F0001B351800EE2
:1009180001010101B56F010E0101B66F000E010161
:10092800B76F000E0101B86F0001B36F000E01012F
:100938000101C26F0001B351010101018E670BD0A3
:1009480021EEB5F010EE7CF00E0EDECFE6FFE82EBD
:10095800FCD79BEC0DF08C922E50D8B45CD00001E3
:10096800B36F000E2E6E0001B3510101A7C1B3F0A1
:10097800B3C0B4F00001B56B0001B451010101012D
:10098800B96FA6C1BAF10101A9C1B3F0B3C0B4F0FF
:100998000001B56B0001B45101010101BB6FA8C191
:1009A800BCF10101ABC1B3F0B3C0B4F00001B56B49
:1009B8000001B45101010101BD6FAAC1BEF10001DE
:1009C800B36F060E01010101C16F0001B351810E21
:1009D80001010101B56F010E0101B66F000E0101A1
:1009E800B76F000E0101B86F0001B36F000E01016F
:1009F8000101C26F0001B351010101018E670BD0E3
:100A080021EEB5F010EE7CF00E0EDECFE6FFE82EFC
:100A1800FCD79BEC0DF02F50D8B46AD00001B36F0F
:100A2800000E2F6E0001B3510101ADC1B3F0B3C088
:100A3800B4F00001B56B0001B45101010101B96FB7
:100A4800ACC1BAF10101AFC1B3F0B3C0B4F0000159
:100A5800B56B0001B45101010101BB6FAEC1BCF11E
:100A68000101B1C1B3F0B3C0B4F00001B56B00012E
:100A7800B45101010101BD6FB0C1BEF10101B3C1A3
:100A8800B3F0B3C0B4F00001B56B0001B45101017B
:100A98000101BF6FB2C1C0F10001B36F080E0101BF
:100AA8000101C16F0001B351820E01010101B56F4F
:100AB800010E0101B66F000E0101B76F000E0101B2
:100AC800B86F0001B36F000E01010101C26F000190
:100AD800B351010101018E670BD021EEB5F010EE84
:100AE8007CF00E0EDECFE6FFE82EFCD79BEC0DF077
:100AF800020102018F67D7D0010101018E67D3D0AF
:100B08000AEC0CF021EE92F00E0EEECFDEFFE82E8E
:100B1800FCD7010101019305840ED8B492199411F0
:100B28009511D8A43ED0010101019F51400AD8A4D3
:100B380038D00001B36F010E01010101B96F000146
:100B4800B3510001B36F000E01010101BA6F00013A
:100B5800B3510001B36F020E01010101C16F000121
:100B6800B351840E01010101B56F010E0101B66F89
:100B7800000E0101B76F000E0101B86F0001B36FDD
:100B8800000E01010101C26F0001B35121EEB5F061
:100B980010EE7CF00E0EDECFE6FFE82EFCD79BECC5
:100BA8000DF00101010193058F0ED8B4921994112B
:100BB8009511D8A43ED0010101019F51400AD8A443
:100BC80038D00001B36F010E01010101B96F0001B6
:100BD800B3510001B36F010E01010101BA6F0001A9
:100BE800B3510001B36F020E01010101C16F000191
:100BF800B3518F0E01010101B56F010E0101B66FEE
:100C0800000E0101B76F000E0101B86F0001B36F4C
:100C1800000E01010101C26F0001B35121EEB5F0D0
:100C280010EE7CF00E0EDECFE6FFE82EFCD79BEC34
:100C38000DF0010101019305830ED8B492199411A6
:100C48009511D8A430D0010101019F51400AD8A4C0
:100C58002AD0B4C1B9F10001B36F010E010101013D
:100C6800C16F0001B351830E01010101B56F010E7F
:100C78000101B66F000E0101B76F000E0101B86FD8
:100C88000001B36F000E01010101C26F0001B351F1
:100C980021EEB5F010EE7CF00E0EDECFE6FFE82E6A
:100CA800FCD79BEC0DF000010001C36733D00101B4
:100CB80001018E672FD0E5EC0DF001010101916F64
:100CC80091C1B9F10001B36F010E01010101C16FBA
:100CD8000001B351000E01010101B56F020E0101BF
:100CE800B66F000E0101B76F000E0101B86F000169
:100CF800B36F000E01010101C26F0001B35121EE73
:100D0800B5F010EE7CF00E0EDECFE6FFE82EFCD735
:100D18009BEC0DF0010101018F67A4D50F0120B7ED
:100D2800A1D58C829CEC0BF021EEB5F00E0EEECF27
:100D3800DEFFE82EFCD7B5C187F0B6C188F0B7C191
:100D480089F0B8C18AF00101010E000100018C6F21
:100D58000101B90E000100018B6FC1C18DF0C2C144
:100D68008EF0A9EC07F08C927DD50001000E0001F1
:100D78000001866F00017E0E00010001856F0001F1
:100D8800000182674DD085C0D9FF86C0DAFFDF50E9
:100D98000001836F0001D89083330001D89083331A
:100DA8000001D89083317CC0D9FF7DC0DAFFDF6EA7
:100DB800000120EE01F000018551D926000186517D
:100DC800DA22DF500001836F050E0001846F0001F5
:100DD800D89083370001842FFAD77CC0D9FF7DC013
:100DE800DAFF00018351DF12000100017C4B7D2BEB
:100DF80085C0D9FF86C0DAFFDF500001836F050E7A
:100E08000001846F0001D89083370001842FFAD73E
:100E1800000183517CC0D9FF7DC0DAFFDF6E12006C
:100E2800000120EE02F000018551D926000186510B
:100E3800DA22DF500001836F050E0001846F000184
:100E4800D89083330001842FFAD7000183517CC0E6
:100E5800D9FF7DC0DAFFDF6E000120EE03F000014C
:100E68008551D92600018651DA22DF500001836FAF
:100E78000001D89083370001D89083370001D890BB
:100E880083377CC0D9FF7DC0DAFF00018351DF12B0
:100E9800000100017C4B7D2B000120EE02F00001D7
:100EA8008551D92600018651DA22DF500001836F6F
:100EB8000001D89083370001D89083370001D8907B
:100EC8008335E00B7CC0D9FF7DC0DAFFDF6E7CC0C4
:100ED800D9FF7DC0DAFF000EDB86000120EE02F0AC
:100EE80000018551D92600018651DA22DF50000120
:100EF800836F030E000183177CC0D9FF7DC0DAFF22
:100F080000018351DF12000100017C4B7D2B0001A1
:100F180020EE01F000018551D92600018651DA2220
:100F28007CC0E1FF7DC0E2FFDFCFE7FF00010001E9
:100F38007C4B7D2B85C0D9FF86C0DAFF7CC0E1FFE2
:100F48007DC0E2FFDFCFE7FF12000F010F0E0001A7
:100F58000001916F0F01200E00010001906F0F0139
:100F68000F0E00010001936F0F01100E0001000128
:100F7800926F0F010F0E00010001956F0F01000E17
:100F880000010001946F00018F6F000E0001000145
:100F9800A66F00018F51010E00010001A66501D066
:100FA800120000010001A651020D0001900EF32469
:100FB800D96E0001000EF420DA6E0001DECFA7F032
:100FC8000001DDCFA8F000010001A8C0A4F00001D5
:100FD8000001A7C0A3F0A7C0D9FFA8C0DAFFDF505F
:100FE80000018F6F00018FB793D0A7C0D9FFA8C0A9
:100FF800DAFFFC0EDF168EC08FF0030E00018F178C
:10100800A7C0D9FFA8C0DAFF00018F51DF12000185
:1010180000018EAD08D0000100018D51400900018A
:101028000001A56F02D08DC0A5F0000120EE05F0EB
:101038000001A751D9260001A851DA220001A5C054
:10104800DFFF000100018EAB04D000018F6F010E9D
:1010580003D000018F6F000E00010001A56F000191
:101068008F51010E00010001A725000100017C6FCE
:10107800000E00010001A82100017D6F87C07EF0ED
:1010880088C07FF089C080F08AC081F0A5C082F056
:10109800B9EC06F0060E00010001A727000E0001BA
:1010A800A82300018F6F000E00010001A26F00014C
:1010B8008F5115D08BC0D9FF8CC0DAFFA7C0E1FFD4
:1010C800A8C0E2FFDFCFE7FF000100018B4B8C2BAC
:1010D80000010001A74BA82B00010001A22B000171
:1010E80000018D5100010001A25DD8A0E3D7A3C083
:1010F800D9FFA4C0DAFFDF5000018F6F00018FB560
:101108001200A3C0D9FFA4C0DAFF000EDB861200CC
:1011180000010001A62B010E00010001A66541D7C0
:1011280012000001846F000E000100017E6F0001B3
:1011380084510001856F020E000100017F6F0001DC
:101148008551100EA7EC0EF0150E0001846FC60E27
:10115800E82EFED7842FFCD700D00001846F010E43
:10116800000100017E6F000184510001856F010EAE
:10117800000100017F6F000185510F0EA7EC0EF0F2
:10118800150E0001846FC60EE82EFED7842FFCD7FB
:1011980000D00001846F070E000100017E6F00017E
:1011A80084510001856F010E000100017F6F00016D
:1011B8008551100EA7EC0EF0150E0001846FC60EB7
:1011C800E82EFED7842FFCD700D00001846F010ED3
:1011D800000100017E6F000184510001856F020E3D
:1011E800000100017F6F000185514B0EA7EC0EF046
:1011F800150E0001846FC60EE82EFED7842FFCD78B
:1012080000D00001846F050E000100017E6F00010F
:1012180084510001856F020E000100017F6F0001FB
:1012280085514E0EA7EC0EF0150E0001846FC60E08
:10123800E82EFED7842FFCD700D00001846F170E4C
:10124800000100017E6F000184510001856F020ECC
:10125800000100017F6F00018551510EA7EC0EF0CF
:10126800150E0001846FC60EE82EFED7842FFCD71A
:1012780000D00001846F520E000100017E6F000152
:1012880084510001856F020E000100017F6F00018B
:101298008551510EA7EC0EF0150E0001846FC60E95
:1012A800E82EFED7842FFCD700D00001846F280ECB
:1012B800000100017E6F000184510001856F020E5C
:1012C800000100017F6F000185514C0EA7EC0EF064
:1012D800150E0001846FC60EE82EFED7842FFCD7AA
:1012E80000D0120018C01DF017C01CF019664AD0B3
:1012F80015C0D9FF16C0DAFFDF501A6ED8901A361B
:10130800D8901A36D8901A341CC0D9FF1DC0DAFFFD
:10131800DF6E20EE01F01C50D9261D50DA2215C0D0
:10132800E1FF16C0E2FFE7501A6E050E1B6ED8905B
:101338001A321B2EFCD71A50DF6E154A162A15C012
:10134800D9FF16C0DAFFDF501A6E050E1B6ED89053
:101358001A321B2EFCD71CC0D9FF1DC0DAFF1A5049
:10136800DF1220EE02F01C50D9261D50DA22000EA2
:10137800DF6E20EE03F01C50D9261D50DA22000E35
:10138800DF6E120020EE02F01C50D9261D50DA2222
:1013980015C0E1FF16C0E2FFE7501A6E050E1B6E7E
:1013A800D8901A361B2EFCD71A50DF6E20EE03F0A9
:1013B8001C50D9261D50DA2215C0E1FF16C0E2FFE5
:1013C800E7501A6ED8901A32D8901A32D8901A303C
:1013D800DF6E154A162A15C0D9FF16C0DAFFDF508E
:1013E8001A6E030E1A1620EE02F01C50D9261D5054
:1013F800DA221A50DF1215C0D9FF16C0DAFFDF5003
:101408001A6ED8901A32D8901A32D8901A321C0E06
:101418001A1620EE02F01C50D9261D50DA221A5056
:10142800DF12154A162A15C0D9FF16C0DAFF10EECA
:1014380001F01C50E1261D50E222DFCFE7FF154ADC
:10144800162A15C0D9FF16C0DAFF1CC0E1FF1DC05F
:10145800E2FFDFCFE7FF1200FE0E0E010E01F86F6C
:10146800000E0E010E01F96FFE0E0E010E01FC6F4B
:10147800000E0E010E01FD6F010E000100017F6FCD
:10148800800E00017E6F00017EC07CF000017FC0ED
:101498007DF00001D8907D337C330001D8907D33F6
:1014A8007C330001D8907D337C3300017C510E01E0
:1014B8000E01E06F000100017E39E846E00B0E01E5
:1014C8000E01E16F020E000100017F6F000E0001A6
:1014D8007E6F00017EC07CF000017FC07DF00001BE
:1014E800D8907D337C330001D8907D337C33000164
:1014F800D8907D337C3300017C510E010E01E46FDE
:10150800000100017E39E846E00B0E010E01E56F8F
:10151800020E000100017F6F800E00017E6F000146
:101528007EC07CF000017FC07DF00001D8907D3343
:101538007C330001D8907D337C330001D8907D3313
:101548007C3300017C510E010E01E86F000100019F
:101558007E39E846E00B0E010E01E96F030E00012B
:1015680000017F6F000E00017E6F00017EC07CF0DD
:1015780000017FC07DF00001D8907D337C330001ED
:10158800D8907D337C330001D8907D337C330001C3
:101598007C510E010E01EC6F000100017E39E84616
:1015A800E00B0E010E01ED6F000E0E010E01F06F43
:1015B800000E0E010E01F16F000E0E010E01F46F08
:1015C800000E0E010E01F56F1200266E000E306E31
:1015D800265060AE13D0779071AE07D024C0D9FFE3
:1015E80025C0DAFF000EDB86719E60A002D0308035
:1015F80001D030900F0E2B6E600E21D00F0130AF4E
:101608001200779271AC07D024C0D9FF25C0DAFF49
:10161800000EDB86719C0F010F013051070B306EF5
:10162800020E305CD8B006D024C0D9FF25C0DAFF3E
:10163800000EDB8E0F010F0E2B6E0F01300E2A6E7F
:101648002BC028F02AC027F024C0D9FF25C0DAFF14
:10165800000EDF6E20EE05F02A50D9262B50DA2234
:10166800DF502C6E2C500F0B22C0D9FF23C0DAFF9D
:10167800DF6E2CAC06D024C0D9FF25C0DAFF000EDF
:10168800DB8C20EE02F02A50D9262B50DA22DF50CC
:101698002C6E2CA609D024C0D9FF25C0DAFF000E75
:1016A800DB8A266E010E02D0266E000E2C6E2650A6
:1016B800010E2A24156E000E2B20166E1FC018F07E
:1016C8001EC017F02CC019F076EC09F0060E2A2679
:1016D800000E2B2222C0D9FF23C0DAFFDF502C6E68
:1016E800266E000E296E26500FD02AC0D9FF2BC0B7
:1016F800DAFF20C0E1FF21C0E2FFDFCFE7FF2A4A7F
:101708002B2A204A212A292A2C50295CD8A0EDD737
:1017180077AE07D024C0D9FF25C0DAFF000EDB88DA
:10172800779E27C0D9FF28C0DAFF7F0EDF16120088
:10173800010101018F6751D0F29E010101018C5115
:101748000E0D000E00018A6F010E8B6FF350000121
:101758008A27F45000018B238AC0D9FF8BC0DAFF97
:1017680010EE8CF00E0EDECFE6FFE82EFCD700015F
:101778008A6F000E010101018E6F00018A5101017B
:1017880001018C2B010101018C510A0AD8A408D04F
:1017980000018A6F000E010101018C6F00018A515E
:1017A800010101018C51010121EE8DF0DF6208D0A9
:1017B80000018A6F010E010101018F6F00018A513A
:1017C800F28E20EE99F000EE89F00E0EDDCFEDFFDF
:1017D800E82EFCD7E92AEA221200000E00010001D7
:1017E8008C6F000E00018D6F000E00018E6F000ED1
:1017F80000018F6F20EE99F000EE89F00E0EDDCF1C
:10180800EDFFE82EFCD7E92AEA22120002010201C4
:101818008F6751D0F29E020102018C510E0D000E0D
:1018280000018A6F020E8B6FF35000018A27F45073
:1018380000018B238AC0D9FF8BC0DAFF10EE8CF031
:101848000E0EDECFE6FFE82EFCD700018A6F000EF1
:10185800020102018E6F00018A51020102018C2BE4
:10186800020102018C510A0AD8A408D000018A6F2B
:10187800000E020102018C6F00018A51020102016F
:101888008C51020122EE8DF0DF6208D000018A6FD0
:10189800010E020102018F6F00018A51F28E20EEC3
:1018A80099F000EE89F00E0EDDCFEDFFE82EFCD7A3
:1018B800E92AEA221200000E000100018C6F000ED6
:1018C80000018D6F000E00018E6F000E00018F6FFA
:1018D80020EE99F000EE89F00E0EDDCFEDFFE82E38
:1018E800FCD7E92AEA221200800E5BEC10F0010E08
:1018F8000E010E01436F700E0E010E01446F000EB3
:101908000E010E01456F300E706E729E729C000EB5
:10191800606E000E0F010F01306F000E0E010E01F8
:10192800E06F000E0E010E01E16F000E0E010E01B8
:10193800E46F000E0E010E01E56F000E0E010E01A0
:10194800E86F000E0E010E01E96F000E0E010E0188
:10195800EC6F000E0E010E01ED6F000E0E010E0170
:10196800F06F000E0E010E01F16F000E0E010E0158
:10197800F46F000E0E010E01F56F000E0E010E0140
:10198800F86F000E0E010E01F96F0E010E01F997A6
:10199800000E0E010E01FC6F000E0E010E01FD6F10
:1019A8000E010E01FD97000E5BEC10F01200E9CF5E
:1019B80062F0EACF63F0E1CF64F0E2CF65F0D9CF0F
:1019C80066F0DACF67F0F3CF68F0F4CF69F0F6CFBE
:1019D8006AF0F7CF6BF0F8CF6CF0F5CF6DF0000E32
:1019E80077B0010E77B2010EE8A027D00001000EF3
:1019F8001F6E00016E0E1E6E0001000E216E0001AA
:101A0800720E206E0001000E236E00017A0E226E07
:101A18000001000E256E00017B0E246EE9EC0AF031
:101A280020EE6EF010EE15F00E0EDECFE6FFE82E7B
:101A3800FCD72AEC0EF0779077926DC0F5FF6CC05A
:101A4800F8FF6BC0F7FF6AC0F6FF69C0F4FF68C013
:101A5800F3FF67C0DAFF66C0D9FF65C0E2FF64C064
:101A6800E1FF63C0EAFF62C0E9FF61C0FBFF60C03D
:101A7800FAFF11000001836F000E00010001856F5D
:101A8800000183510001836F000E000100017E6F89
:101A980000018351000E69EC0EF000010001846F13
:101AA800000100018451FA0AD8A407D000010001FE
:101AB8008551010900010001856F0001836F010E46
:101AC800000100017E6F00018351000E69EC0EF0E9
:101AD80000010001846F0001000184510F0AD8A49D
:101AE80007D0000100018551020900010001856F3E
:101AF8000001836F020E000100017E6F0001835117
:101B0800400E69EC0EF000010001846F0001000135
:101B18008451320AD8A407D0000100018551040974
:101B280000010001856F00010001855112000101CB
:101B380001018E671200F29E20EE7CF00101010186
:101B48008D510E0D000E00018A6F010E8B6FF35040
:101B580000018A27F45000018B238AC0E1FF8BC063
:101B6800E2FF0E0EDECFE6FFE82EFCD700018A6FFB
:101B7800000E010101018F6F00018A51010101016D
:101B88008D2B010101018D510A0AD8A408D000014A
:101B98008A6F000E010101018D6F00018A51010158
:101BA80001018C51010121EE8DF0DF6208D00001A6
:101BB8008A6F010E010101018E6F00018A51F28EB8
:101BC800120000010001C3673FD0F29E000100012E
:101BD800C051010D0001B60EF324D96E0001000EAC
:101BE800F420DA6EDF50000100017D6F00017C6F88
:101BF800000E00010001C26F00017C5100010001CC
:101C0800C02B00010001C0510A0AD8A408D0000165
:101C18007C6F000E00010001C06F00017C510001C3
:101C28000001C051000120EEC1F0DF6208D00001C0
:101C38007C6F010E00010001C36F00017C51F28E20
:101C4800000100017D511200000E12000201020184
:101C58008E67120020EE15F0020102018D510E0D63
:101C6800000E236E020E246EF3502326F450242215
:101C780023C0E1FF24C0E2FF0E0EDECFE6FFE82E10
:101C8800FCD7236E000E020102018F6F2350020160
:101C980002018D2B020102018D510A0AD8A406D037
:101CA800236E000E020102018D6F23500201020112
:101CB8008C51020122EE8DF0DF621200236E010EBC
:101CC800020102018E6F23501200E8CF80F000015C
:101CD8007F6F000E00010001816F00017F5100013C
:101CE8007F6F000E00010001826F00017F5100012B
:101CF80000018051800900010001816F000100018D
:101D08007E6702D08B940DD0000100017E05D8A417
:101D180002D08B9206D0000100017E51020AD8B48D
:101D28008B900001000181514AEC10F0000E14EC78
:101D380010F000010001826F8B848B828B80000180
:101D4800000182511200E8CF82F00001806F000E7E
:101D580000010001836F000180510001806F000EB7
:101D680000010001816F00018051000100018251D2
:101D78007F0B00010001836F000100017F6702D023
:101D88008B940DD0000100017F05D8A402D08B925E
:101D980006D0000100017F51020AD8B48B900001DF
:101DA800000183514AEC10F0000100017E514AEC19
:101DB80010F08B848B828B801200E8CF02F0F29EA9
:101DC80000010001C26731D000010001C151010DBD
:101DD8000001B60EF324D96E0001000EF420DA6E6D
:101DE80002C0DFFF016E000E00010001C36F015049
:101DF80000010001C12B00010001C1510A0AD8A449
:101E080006D0016E000E00010001C16F01500001F3
:101E18000001C051000120EEC1F0DF6206D0016E62
:101E2800010E00010001C26F0150F28E1200000184
:101E38007C6F010E3E6E00017C5100017C6F000E2C
:101E48003D6E00017C5100017C6F000E3C6E00016C
:101E58007C5100017C6F000E3B6E00017C5100013B
:101E68007C6F010E00010001C36F00017C5100016D
:101E78007C6F000E00010001C26F00017C5100015F
:101E88007C6F000E00010001C16F00017C51000150
:101E98007C6F000E00010001C06F00017C51120030
:101EA800D08E200EF26EF80EF16E000EF06E000E5F
:101EB8009E6E000EA16E000EA46E000EB76E000E90
:101EC800776E200E9D6E000EA06E200EA36E000E83
:101ED800B66E030E766E000E9F6E000EA26E000E9A
:101EE800A56E000EB86E030E786EF28EF28C12009C
:101EF800E8CF02F0F29E3D6620D03C50010D310E35
:101F0800F324D96E000EF420DA6E02C0DFFF016EF2
:101F1800000E3E6E01503C2A3C500A0AD8A404D058
:101F2800016E000E3C6E01503B5020EE3CF0DF622B
:101F380004D0016E010E3D6E0150F28E12000001B8
:101F48007C6F010E010101018F6F00017C510001BE
:101F58007C6F000E010101018E6F00017C510001B0
:101F68007C6F000E010101018C6F00017C510001A2
:101F78007C6F000E010101018D6F00017C51120080
:101F880000017C6F010E020102018F6F00017C517C
:101F980000017C6F000E020102018E6F00017C516E
:101FA80000017C6F000E020102018C6F00017C5160
:101FB80000017C6F000E020102018D6F00017C514F
:101FC800120002EE00F0900EEE6AE806FDE101EE66
:101FD80000F0900EEE6AE806FDE100EEB6F00E0E97
:101FE800EE6AE806FDE100EE2DF0120EEE6AE80654
:101FF800FDE10001F3EF03F0000EAC6E000EAB6ED6
:10200800AC98AC9CAB9CAC9EAB88AC84A7869D8AF4
:102018009D988A0EAF6E000E7D6EAC8AAB8E120054
:10202800E8CF7CF0F29EC9CF7DF09E96C69E7CC01C
:10203800C9FFC7A0FED7C9CF7DF0F28E000100010D
:102048007D511200000EBA6E000EA66EBA98BA9CA8
:10205800A69CBA9EA688BA94B9969D8A9D98670E42
:102068007B6EBA8AA68E1200FB0E936E8A84900E3F
:10207800946E8B848B828B80B80E956E8C908C922C
:102088008C84000E966E8D808D821200E8CF7DF0D4
:10209800F29EC9CF7CF09E96C69E7DC0C9FFC6AE93
:1020A80002D0F28E1200C7A0FED7F28E1200E8CF3F
:1020B8007CF01F0E6F16000100017C516F126E50EC
:1020C800E00B000100017C19D8B41200F8D7D59CA8
:1020D800D59AD596D550F80B0609D56EFB0ED76E56
:1020E8001E0ED66ED58E12003F0EC716C650F00BC8
:1020F8000209C66EC698C78CC68A1200D38ED398BA
:0A210800D39AD39CFC0ED3161200EC
:020000040020DA
:08000000FFFFFFFFFFFFFFFF00
:020000040030CA
:0E00000014137E7CFF8991FF0FC00FE00F40AC
:00000001FF
